{
  "_format": "hh-sol-artifact-1",
  "contractName": "SkeletonPunk",
  "sourceName": "contracts/SkeletonPunk.sol",
  "abi": [
    {
      "inputs": [],
      "stateMutability": "payable",
      "type": "constructor"
    },
    {
      "anonymous": false,
      "inputs": [
        {
          "indexed": true,
          "internalType": "address",
          "name": "owner",
          "type": "address"
        },
        {
          "indexed": true,
          "internalType": "address",
          "name": "approved",
          "type": "address"
        },
        {
          "indexed": true,
          "internalType": "uint256",
          "name": "tokenId",
          "type": "uint256"
        }
      ],
      "name": "Approval",
      "type": "event"
    },
    {
      "anonymous": false,
      "inputs": [
        {
          "indexed": true,
          "internalType": "address",
          "name": "owner",
          "type": "address"
        },
        {
          "indexed": true,
          "internalType": "address",
          "name": "operator",
          "type": "address"
        },
        {
          "indexed": false,
          "internalType": "bool",
          "name": "approved",
          "type": "bool"
        }
      ],
      "name": "ApprovalForAll",
      "type": "event"
    },
    {
      "anonymous": false,
      "inputs": [
        {
          "indexed": true,
          "internalType": "address",
          "name": "previousOwner",
          "type": "address"
        },
        {
          "indexed": true,
          "internalType": "address",
          "name": "newOwner",
          "type": "address"
        }
      ],
      "name": "OwnershipTransferred",
      "type": "event"
    },
    {
      "anonymous": false,
      "inputs": [
        {
          "indexed": true,
          "internalType": "address",
          "name": "from",
          "type": "address"
        },
        {
          "indexed": true,
          "internalType": "address",
          "name": "to",
          "type": "address"
        },
        {
          "indexed": true,
          "internalType": "uint256",
          "name": "tokenId",
          "type": "uint256"
        }
      ],
      "name": "Transfer",
      "type": "event"
    },
    {
      "inputs": [
        {
          "internalType": "address",
          "name": "to",
          "type": "address"
        },
        {
          "internalType": "uint256",
          "name": "tokenId",
          "type": "uint256"
        }
      ],
      "name": "approve",
      "outputs": [],
      "stateMutability": "nonpayable",
      "type": "function"
    },
    {
      "inputs": [
        {
          "internalType": "address",
          "name": "owner",
          "type": "address"
        }
      ],
      "name": "balanceOf",
      "outputs": [
        {
          "internalType": "uint256",
          "name": "",
          "type": "uint256"
        }
      ],
      "stateMutability": "view",
      "type": "function"
    },
    {
      "inputs": [
        {
          "internalType": "uint256",
          "name": "tokenId",
          "type": "uint256"
        }
      ],
      "name": "getApproved",
      "outputs": [
        {
          "internalType": "address",
          "name": "",
          "type": "address"
        }
      ],
      "stateMutability": "view",
      "type": "function"
    },
    {
      "inputs": [
        {
          "internalType": "address",
          "name": "owner",
          "type": "address"
        },
        {
          "internalType": "address",
          "name": "operator",
          "type": "address"
        }
      ],
      "name": "isApprovedForAll",
      "outputs": [
        {
          "internalType": "bool",
          "name": "",
          "type": "bool"
        }
      ],
      "stateMutability": "view",
      "type": "function"
    },
    {
      "inputs": [],
      "name": "isPublicMintEnabled",
      "outputs": [
        {
          "internalType": "bool",
          "name": "",
          "type": "bool"
        }
      ],
      "stateMutability": "view",
      "type": "function"
    },
    {
      "inputs": [],
      "name": "maxPerWallet",
      "outputs": [
        {
          "internalType": "uint256",
          "name": "",
          "type": "uint256"
        }
      ],
      "stateMutability": "view",
      "type": "function"
    },
    {
      "inputs": [],
      "name": "maxSupply",
      "outputs": [
        {
          "internalType": "uint256",
          "name": "",
          "type": "uint256"
        }
      ],
      "stateMutability": "view",
      "type": "function"
    },
    {
      "inputs": [
        {
          "internalType": "uint256",
          "name": "quantity_",
          "type": "uint256"
        }
      ],
      "name": "mint",
      "outputs": [],
      "stateMutability": "payable",
      "type": "function"
    },
    {
      "inputs": [],
      "name": "mintPrice",
      "outputs": [
        {
          "internalType": "uint256",
          "name": "",
          "type": "uint256"
        }
      ],
      "stateMutability": "view",
      "type": "function"
    },
    {
      "inputs": [],
      "name": "name",
      "outputs": [
        {
          "internalType": "string",
          "name": "",
          "type": "string"
        }
      ],
      "stateMutability": "view",
      "type": "function"
    },
    {
      "inputs": [],
      "name": "owner",
      "outputs": [
        {
          "internalType": "address",
          "name": "",
          "type": "address"
        }
      ],
      "stateMutability": "view",
      "type": "function"
    },
    {
      "inputs": [
        {
          "internalType": "uint256",
          "name": "tokenId",
          "type": "uint256"
        }
      ],
      "name": "ownerOf",
      "outputs": [
        {
          "internalType": "address",
          "name": "",
          "type": "address"
        }
      ],
      "stateMutability": "view",
      "type": "function"
    },
    {
      "inputs": [],
      "name": "renounceOwnership",
      "outputs": [],
      "stateMutability": "nonpayable",
      "type": "function"
    },
    {
      "inputs": [
        {
          "internalType": "address",
          "name": "from",
          "type": "address"
        },
        {
          "internalType": "address",
          "name": "to",
          "type": "address"
        },
        {
          "internalType": "uint256",
          "name": "tokenId",
          "type": "uint256"
        }
      ],
      "name": "safeTransferFrom",
      "outputs": [],
      "stateMutability": "nonpayable",
      "type": "function"
    },
    {
      "inputs": [
        {
          "internalType": "address",
          "name": "from",
          "type": "address"
        },
        {
          "internalType": "address",
          "name": "to",
          "type": "address"
        },
        {
          "internalType": "uint256",
          "name": "tokenId",
          "type": "uint256"
        },
        {
          "internalType": "bytes",
          "name": "data",
          "type": "bytes"
        }
      ],
      "name": "safeTransferFrom",
      "outputs": [],
      "stateMutability": "nonpayable",
      "type": "function"
    },
    {
      "inputs": [
        {
          "internalType": "address",
          "name": "operator",
          "type": "address"
        },
        {
          "internalType": "bool",
          "name": "approved",
          "type": "bool"
        }
      ],
      "name": "setApprovalForAll",
      "outputs": [],
      "stateMutability": "nonpayable",
      "type": "function"
    },
    {
      "inputs": [
        {
          "internalType": "string",
          "name": "baseTokenURI_",
          "type": "string"
        }
      ],
      "name": "setBaseTokenURI",
      "outputs": [],
      "stateMutability": "nonpayable",
      "type": "function"
    },
    {
      "inputs": [
        {
          "internalType": "bool",
          "name": "isPublicMintEnabled_",
          "type": "bool"
        }
      ],
      "name": "setIsPublicMintEnabled",
      "outputs": [],
      "stateMutability": "nonpayable",
      "type": "function"
    },
    {
      "inputs": [
        {
          "internalType": "bytes4",
          "name": "interfaceId",
          "type": "bytes4"
        }
      ],
      "name": "supportsInterface",
      "outputs": [
        {
          "internalType": "bool",
          "name": "",
          "type": "bool"
        }
      ],
      "stateMutability": "view",
      "type": "function"
    },
    {
      "inputs": [],
      "name": "symbol",
      "outputs": [
        {
          "internalType": "string",
          "name": "",
          "type": "string"
        }
      ],
      "stateMutability": "view",
      "type": "function"
    },
    {
      "inputs": [
        {
          "internalType": "uint256",
          "name": "tokenId_",
          "type": "uint256"
        }
      ],
      "name": "tokenURI",
      "outputs": [
        {
          "internalType": "string",
          "name": "",
          "type": "string"
        }
      ],
      "stateMutability": "view",
      "type": "function"
    },
    {
      "inputs": [],
      "name": "totalSupply",
      "outputs": [
        {
          "internalType": "uint256",
          "name": "",
          "type": "uint256"
        }
      ],
      "stateMutability": "view",
      "type": "function"
    },
    {
      "inputs": [
        {
          "internalType": "address",
          "name": "from",
          "type": "address"
        },
        {
          "internalType": "address",
          "name": "to",
          "type": "address"
        },
        {
          "internalType": "uint256",
          "name": "tokenId",
          "type": "uint256"
        }
      ],
      "name": "transferFrom",
      "outputs": [],
      "stateMutability": "nonpayable",
      "type": "function"
    },
    {
      "inputs": [
        {
          "internalType": "address",
          "name": "newOwner",
          "type": "address"
        }
      ],
      "name": "transferOwnership",
      "outputs": [],
      "stateMutability": "nonpayable",
      "type": "function"
    },
    {
      "inputs": [
        {
          "internalType": "address",
          "name": "",
          "type": "address"
        }
      ],
      "name": "walletMints",
      "outputs": [
        {
          "internalType": "uint256",
          "name": "",
          "type": "uint256"
        }
      ],
      "stateMutability": "view",
      "type": "function"
    },
    {
      "inputs": [],
      "name": "withdraw",
      "outputs": [],
      "stateMutability": "nonpayable",
      "type": "function"
    },
    {
      "inputs": [],
      "name": "withdrawWallet",
      "outputs": [
        {
          "internalType": "address payable",
          "name": "",
          "type": "address"
        }
      ],
      "stateMutability": "view",
      "type": "function"
    }
  ],
  "bytecode": "0x60806040526040518060400160405280600c81526020017f536b656c65746f6e50756e6b00000000000000000000000000000000000000008152506040518060400160405280600281526020017f5350000000000000000000000000000000000000000000000000000000000000815250816000908051906020019062000088929190620001bf565b508060019080519060200190620000a1929190620001bf565b505050620000c4620000b8620000f160201b60201c565b620000f960201b60201c565b66470de4df82000060078190555060006008819055506103e86009819055506003600a81905550620002d4565b600033905090565b6000600660009054906101000a900473ffffffffffffffffffffffffffffffffffffffff16905081600660006101000a81548173ffffffffffffffffffffffffffffffffffffffff021916908373ffffffffffffffffffffffffffffffffffffffff1602179055508173ffffffffffffffffffffffffffffffffffffffff168173ffffffffffffffffffffffffffffffffffffffff167f8be0079c531659141344cd1fd0a4f28419497f9722a3daafe3b4186f6b6457e060405160405180910390a35050565b828054620001cd906200029e565b90600052602060002090601f016020900481019282620001f157600085556200023d565b82601f106200020c57805160ff19168380011785556200023d565b828001600101855582156200023d579182015b828111156200023c5782518255916020019190600101906200021f565b5b5090506200024c919062000250565b5090565b5b808211156200026b57600081600090555060010162000251565b5090565b7f4e487b7100000000000000000000000000000000000000000000000000000000600052602260045260246000fd5b60006002820490506001821680620002b757607f821691505b60208210811415620002ce57620002cd6200026f565b5b50919050565b61355480620002e46000396000f3fe60806040526004361061019c5760003560e01c80636817c76c116100ec578063a22cb4651161008a578063d5abeb0111610064578063d5abeb0114610593578063e985e9c5146105be578063f0293fd3146105fb578063f2fde38b146106385761019c565b8063a22cb46514610504578063b88d4fde1461052d578063c87b56dd146105565761019c565b806385d178f4116100c657806385d178f4146104675780638da5cb5b1461049257806395d89b41146104bd578063a0712d68146104e85761019c565b80636817c76c146103e857806370a0823114610413578063715018a6146104505761019c565b80632373ac22116101595780633ccfd60b116101335780633ccfd60b1461034057806342842e0e14610357578063453c2310146103805780636352211e146103ab5761019c565b80632373ac22146102c557806323b872dd146102ee57806330176e13146103175761019c565b80630116bc2d146101a157806301ffc9a7146101cc57806306fdde0314610209578063081812fc14610234578063095ea7b31461027157806318160ddd1461029a575b600080fd5b3480156101ad57600080fd5b506101b6610661565b6040516101c39190612100565b60405180910390f35b3480156101d857600080fd5b506101f360048036038101906101ee9190612187565b610674565b6040516102009190612100565b60405180910390f35b34801561021557600080fd5b5061021e610756565b60405161022b919061224d565b60405180910390f35b34801561024057600080fd5b5061025b600480360381019061025691906122a5565b6107e8565b6040516102689190612313565b60405180910390f35b34801561027d57600080fd5b506102986004803603810190610293919061235a565b61082e565b005b3480156102a657600080fd5b506102af610946565b6040516102bc91906123a9565b60405180910390f35b3480156102d157600080fd5b506102ec60048036038101906102e791906123f0565b61094c565b005b3480156102fa57600080fd5b506103156004803603810190610310919061241d565b610971565b005b34801561032357600080fd5b5061033e600480360381019061033991906124d5565b6109d1565b005b34801561034c57600080fd5b506103556109ef565b005b34801561036357600080fd5b5061037e6004803603810190610379919061241d565b610ac8565b005b34801561038c57600080fd5b50610395610ae8565b6040516103a291906123a9565b60405180910390f35b3480156103b757600080fd5b506103d260048036038101906103cd91906122a5565b610aee565b6040516103df9190612313565b60405180910390f35b3480156103f457600080fd5b506103fd610b75565b60405161040a91906123a9565b60405180910390f35b34801561041f57600080fd5b5061043a60048036038101906104359190612522565b610b7b565b60405161044791906123a9565b60405180910390f35b34801561045c57600080fd5b50610465610c33565b005b34801561047357600080fd5b5061047c610c47565b6040516104899190612570565b60405180910390f35b34801561049e57600080fd5b506104a7610c6d565b6040516104b49190612313565b60405180910390f35b3480156104c957600080fd5b506104d2610c97565b6040516104df919061224d565b60405180910390f35b61050260048036038101906104fd91906122a5565b610d29565b005b34801561051057600080fd5b5061052b6004803603810190610526919061258b565b610f00565b005b34801561053957600080fd5b50610554600480360381019061054f91906126fb565b610f16565b005b34801561056257600080fd5b5061057d600480360381019061057891906122a5565b610f78565b60405161058a919061224d565b60405180910390f35b34801561059f57600080fd5b506105a8610ff4565b6040516105b591906123a9565b60405180910390f35b3480156105ca57600080fd5b506105e560048036038101906105e0919061277e565b610ffa565b6040516105f29190612100565b60405180910390f35b34801561060757600080fd5b50610622600480360381019061061d9190612522565b61108e565b60405161062f91906123a9565b60405180910390f35b34801561064457600080fd5b5061065f600480360381019061065a9190612522565b6110a6565b005b600b60009054906101000a900460ff1681565b60007f80ac58cd000000000000000000000000000000000000000000000000000000007bffffffffffffffffffffffffffffffffffffffffffffffffffffffff1916827bffffffffffffffffffffffffffffffffffffffffffffffffffffffff1916148061073f57507f5b5e139f000000000000000000000000000000000000000000000000000000007bffffffffffffffffffffffffffffffffffffffffffffffffffffffff1916827bffffffffffffffffffffffffffffffffffffffffffffffffffffffff1916145b8061074f575061074e8261112a565b5b9050919050565b606060008054610765906127ed565b80601f0160208091040260200160405190810160405280929190818152602001828054610791906127ed565b80156107de5780601f106107b3576101008083540402835291602001916107de565b820191906000526020600020905b8154815290600101906020018083116107c157829003601f168201915b5050505050905090565b60006107f382611194565b6004600083815260200190815260200160002060009054906101000a900473ffffffffffffffffffffffffffffffffffffffff169050919050565b600061083982610aee565b90508073ffffffffffffffffffffffffffffffffffffffff168373ffffffffffffffffffffffffffffffffffffffff1614156108aa576040517f08c379a00000000000000000000000000000000000000000000000000000000081526004016108a190612891565b60405180910390fd5b8073ffffffffffffffffffffffffffffffffffffffff166108c96111df565b73ffffffffffffffffffffffffffffffffffffffff1614806108f857506108f7816108f26111df565b610ffa565b5b610937576040517f08c379a000000000000000000000000000000000000000000000000000000000815260040161092e90612923565b60405180910390fd5b61094183836111e7565b505050565b60085481565b6109546112a0565b80600b60006101000a81548160ff02191690831515021790555050565b61098261097c6111df565b8261131e565b6109c1576040517f08c379a00000000000000000000000000000000000000000000000000000000081526004016109b8906129b5565b60405180910390fd5b6109cc8383836113b3565b505050565b6109d96112a0565b8181600c91906109ea929190612042565b505050565b6109f76112a0565b6000600d60009054906101000a900473ffffffffffffffffffffffffffffffffffffffff1673ffffffffffffffffffffffffffffffffffffffff1647604051610a3f90612a06565b60006040518083038185875af1925050503d8060008114610a7c576040519150601f19603f3d011682016040523d82523d6000602084013e610a81565b606091505b5050905080610ac5576040517f08c379a0000000000000000000000000000000000000000000000000000000008152600401610abc90612a67565b60405180910390fd5b50565b610ae383838360405180602001604052806000815250610f16565b505050565b600a5481565b600080610afa836116ad565b9050600073ffffffffffffffffffffffffffffffffffffffff168173ffffffffffffffffffffffffffffffffffffffff161415610b6c576040517f08c379a0000000000000000000000000000000000000000000000000000000008152600401610b6390612ad3565b60405180910390fd5b80915050919050565b60075481565b60008073ffffffffffffffffffffffffffffffffffffffff168273ffffffffffffffffffffffffffffffffffffffff161415610bec576040517f08c379a0000000000000000000000000000000000000000000000000000000008152600401610be390612b65565b60405180910390fd5b600360008373ffffffffffffffffffffffffffffffffffffffff1673ffffffffffffffffffffffffffffffffffffffff168152602001908152602001600020549050919050565b610c3b6112a0565b610c4560006116ea565b565b600d60009054906101000a900473ffffffffffffffffffffffffffffffffffffffff1681565b6000600660009054906101000a900473ffffffffffffffffffffffffffffffffffffffff16905090565b606060018054610ca6906127ed565b80601f0160208091040260200160405190810160405280929190818152602001828054610cd2906127ed565b8015610d1f5780601f10610cf457610100808354040283529160200191610d1f565b820191906000526020600020905b815481529060010190602001808311610d0257829003601f168201915b5050505050905090565b600b60009054906101000a900460ff16610d78576040517f08c379a0000000000000000000000000000000000000000000000000000000008152600401610d6f90612bd1565b60405180910390fd5b60075481610d869190612c20565b3414610dc7576040517f08c379a0000000000000000000000000000000000000000000000000000000008152600401610dbe90612cc6565b60405180910390fd5b60095481600854610dd89190612ce6565b1115610e19576040517f08c379a0000000000000000000000000000000000000000000000000000000008152600401610e1090612d88565b60405180910390fd5b600a5481600e60003373ffffffffffffffffffffffffffffffffffffffff1673ffffffffffffffffffffffffffffffffffffffff16815260200190815260200160002054610e679190612ce6565b1115610ea8576040517f08c379a0000000000000000000000000000000000000000000000000000000008152600401610e9f90612df4565b60405180910390fd5b60005b81811015610efc5760006001600854610ec49190612ce6565b905060086000815480929190610ed990612e14565b9190505550610ee833826117b0565b508080610ef490612e14565b915050610eab565b5050565b610f12610f0b6111df565b83836117ce565b5050565b610f27610f216111df565b8361131e565b610f66576040517f08c379a0000000000000000000000000000000000000000000000000000000008152600401610f5d906129b5565b60405180910390fd5b610f728484848461193b565b50505050565b6060610f8382611997565b610fc2576040517f08c379a0000000000000000000000000000000000000000000000000000000008152600401610fb990612ea9565b60405180910390fd5b600c610fcd836119d8565b604051602001610fde929190612fe5565b6040516020818303038152906040529050919050565b60095481565b6000600560008473ffffffffffffffffffffffffffffffffffffffff1673ffffffffffffffffffffffffffffffffffffffff16815260200190815260200160002060008373ffffffffffffffffffffffffffffffffffffffff1673ffffffffffffffffffffffffffffffffffffffff16815260200190815260200160002060009054906101000a900460ff16905092915050565b600e6020528060005260406000206000915090505481565b6110ae6112a0565b600073ffffffffffffffffffffffffffffffffffffffff168173ffffffffffffffffffffffffffffffffffffffff16141561111e576040517f08c379a000000000000000000000000000000000000000000000000000000000815260040161111590613086565b60405180910390fd5b611127816116ea565b50565b60007f01ffc9a7000000000000000000000000000000000000000000000000000000007bffffffffffffffffffffffffffffffffffffffffffffffffffffffff1916827bffffffffffffffffffffffffffffffffffffffffffffffffffffffff1916149050919050565b61119d81611997565b6111dc576040517f08c379a00000000000000000000000000000000000000000000000000000000081526004016111d390612ad3565b60405180910390fd5b50565b600033905090565b816004600083815260200190815260200160002060006101000a81548173ffffffffffffffffffffffffffffffffffffffff021916908373ffffffffffffffffffffffffffffffffffffffff160217905550808273ffffffffffffffffffffffffffffffffffffffff1661125a83610aee565b73ffffffffffffffffffffffffffffffffffffffff167f8c5be1e5ebec7d5bd14f71427d1e84f3dd0314c0f7b2291e5b200ac8c7c3b92560405160405180910390a45050565b6112a86111df565b73ffffffffffffffffffffffffffffffffffffffff166112c6610c6d565b73ffffffffffffffffffffffffffffffffffffffff161461131c576040517f08c379a0000000000000000000000000000000000000000000000000000000008152600401611313906130f2565b60405180910390fd5b565b60008061132a83610aee565b90508073ffffffffffffffffffffffffffffffffffffffff168473ffffffffffffffffffffffffffffffffffffffff16148061136c575061136b8185610ffa565b5b806113aa57508373ffffffffffffffffffffffffffffffffffffffff16611392846107e8565b73ffffffffffffffffffffffffffffffffffffffff16145b91505092915050565b8273ffffffffffffffffffffffffffffffffffffffff166113d382610aee565b73ffffffffffffffffffffffffffffffffffffffff1614611429576040517f08c379a000000000000000000000000000000000000000000000000000000000815260040161142090613184565b60405180910390fd5b600073ffffffffffffffffffffffffffffffffffffffff168273ffffffffffffffffffffffffffffffffffffffff161415611499576040517f08c379a000000000000000000000000000000000000000000000000000000000815260040161149090613216565b60405180910390fd5b6114a68383836001611ab0565b8273ffffffffffffffffffffffffffffffffffffffff166114c682610aee565b73ffffffffffffffffffffffffffffffffffffffff161461151c576040517f08c379a000000000000000000000000000000000000000000000000000000000815260040161151390613184565b60405180910390fd5b6004600082815260200190815260200160002060006101000a81549073ffffffffffffffffffffffffffffffffffffffff02191690556001600360008573ffffffffffffffffffffffffffffffffffffffff1673ffffffffffffffffffffffffffffffffffffffff168152602001908152602001600020600082825403925050819055506001600360008473ffffffffffffffffffffffffffffffffffffffff1673ffffffffffffffffffffffffffffffffffffffff16815260200190815260200160002060008282540192505081905550816002600083815260200190815260200160002060006101000a81548173ffffffffffffffffffffffffffffffffffffffff021916908373ffffffffffffffffffffffffffffffffffffffff160217905550808273ffffffffffffffffffffffffffffffffffffffff168473ffffffffffffffffffffffffffffffffffffffff167fddf252ad1be2c89b69c2b068fc378daa952ba7f163c4a11628f55a4df523b3ef60405160405180910390a46116a88383836001611ab6565b505050565b60006002600083815260200190815260200160002060009054906101000a900473ffffffffffffffffffffffffffffffffffffffff169050919050565b6000600660009054906101000a900473ffffffffffffffffffffffffffffffffffffffff16905081600660006101000a81548173ffffffffffffffffffffffffffffffffffffffff021916908373ffffffffffffffffffffffffffffffffffffffff1602179055508173ffffffffffffffffffffffffffffffffffffffff168173ffffffffffffffffffffffffffffffffffffffff167f8be0079c531659141344cd1fd0a4f28419497f9722a3daafe3b4186f6b6457e060405160405180910390a35050565b6117ca828260405180602001604052806000815250611abc565b5050565b8173ffffffffffffffffffffffffffffffffffffffff168373ffffffffffffffffffffffffffffffffffffffff16141561183d576040517f08c379a000000000000000000000000000000000000000000000000000000000815260040161183490613282565b60405180910390fd5b80600560008573ffffffffffffffffffffffffffffffffffffffff1673ffffffffffffffffffffffffffffffffffffffff16815260200190815260200160002060008473ffffffffffffffffffffffffffffffffffffffff1673ffffffffffffffffffffffffffffffffffffffff16815260200190815260200160002060006101000a81548160ff0219169083151502179055508173ffffffffffffffffffffffffffffffffffffffff168373ffffffffffffffffffffffffffffffffffffffff167f17307eab39ab6107e8899845ad3d59bd9653f200f220920489ca2b5937696c318360405161192e9190612100565b60405180910390a3505050565b6119468484846113b3565b61195284848484611b17565b611991576040517f08c379a000000000000000000000000000000000000000000000000000000000815260040161198890613314565b60405180910390fd5b50505050565b60008073ffffffffffffffffffffffffffffffffffffffff166119b9836116ad565b73ffffffffffffffffffffffffffffffffffffffff1614159050919050565b6060600060016119e784611cae565b01905060008167ffffffffffffffff811115611a0657611a056125d0565b5b6040519080825280601f01601f191660200182016040528015611a385781602001600182028036833780820191505090505b509050600082602001820190505b600115611aa5578080600190039150507f3031323334353637383961626364656600000000000000000000000000000000600a86061a8153600a8581611a8f57611a8e613334565b5b0494506000851415611aa057611aa5565b611a46565b819350505050919050565b50505050565b50505050565b611ac68383611e01565b611ad36000848484611b17565b611b12576040517f08c379a0000000000000000000000000000000000000000000000000000000008152600401611b0990613314565b60405180910390fd5b505050565b6000611b388473ffffffffffffffffffffffffffffffffffffffff1661201f565b15611ca1578373ffffffffffffffffffffffffffffffffffffffff1663150b7a02611b616111df565b8786866040518563ffffffff1660e01b8152600401611b8394939291906133b8565b602060405180830381600087803b158015611b9d57600080fd5b505af1925050508015611bce57506040513d601f19601f82011682018060405250810190611bcb9190613419565b60015b611c51573d8060008114611bfe576040519150601f19603f3d011682016040523d82523d6000602084013e611c03565b606091505b50600081511415611c49576040517f08c379a0000000000000000000000000000000000000000000000000000000008152600401611c4090613314565b60405180910390fd5b805181602001fd5b63150b7a0260e01b7bffffffffffffffffffffffffffffffffffffffffffffffffffffffff1916817bffffffffffffffffffffffffffffffffffffffffffffffffffffffff191614915050611ca6565b600190505b949350505050565b600080600090507a184f03e93ff9f4daa797ed6e38ed64bf6a1f0100000000000000008310611d0c577a184f03e93ff9f4daa797ed6e38ed64bf6a1f0100000000000000008381611d0257611d01613334565b5b0492506040810190505b6d04ee2d6d415b85acef81000000008310611d49576d04ee2d6d415b85acef81000000008381611d3f57611d3e613334565b5b0492506020810190505b662386f26fc100008310611d7857662386f26fc100008381611d6e57611d6d613334565b5b0492506010810190505b6305f5e1008310611da1576305f5e1008381611d9757611d96613334565b5b0492506008810190505b6127108310611dc6576127108381611dbc57611dbb613334565b5b0492506004810190505b60648310611de95760648381611ddf57611dde613334565b5b0492506002810190505b600a8310611df8576001810190505b80915050919050565b600073ffffffffffffffffffffffffffffffffffffffff168273ffffffffffffffffffffffffffffffffffffffff161415611e71576040517f08c379a0000000000000000000000000000000000000000000000000000000008152600401611e6890613492565b60405180910390fd5b611e7a81611997565b15611eba576040517f08c379a0000000000000000000000000000000000000000000000000000000008152600401611eb1906134fe565b60405180910390fd5b611ec8600083836001611ab0565b611ed181611997565b15611f11576040517f08c379a0000000000000000000000000000000000000000000000000000000008152600401611f08906134fe565b60405180910390fd5b6001600360008473ffffffffffffffffffffffffffffffffffffffff1673ffffffffffffffffffffffffffffffffffffffff16815260200190815260200160002060008282540192505081905550816002600083815260200190815260200160002060006101000a81548173ffffffffffffffffffffffffffffffffffffffff021916908373ffffffffffffffffffffffffffffffffffffffff160217905550808273ffffffffffffffffffffffffffffffffffffffff16600073ffffffffffffffffffffffffffffffffffffffff167fddf252ad1be2c89b69c2b068fc378daa952ba7f163c4a11628f55a4df523b3ef60405160405180910390a461201b600083836001611ab6565b5050565b6000808273ffffffffffffffffffffffffffffffffffffffff163b119050919050565b82805461204e906127ed565b90600052602060002090601f01602090048101928261207057600085556120b7565b82601f1061208957803560ff19168380011785556120b7565b828001600101855582156120b7579182015b828111156120b657823582559160200191906001019061209b565b5b5090506120c491906120c8565b5090565b5b808211156120e15760008160009055506001016120c9565b5090565b60008115159050919050565b6120fa816120e5565b82525050565b600060208201905061211560008301846120f1565b92915050565b6000604051905090565b600080fd5b600080fd5b60007fffffffff0000000000000000000000000000000000000000000000000000000082169050919050565b6121648161212f565b811461216f57600080fd5b50565b6000813590506121818161215b565b92915050565b60006020828403121561219d5761219c612125565b5b60006121ab84828501612172565b91505092915050565b600081519050919050565b600082825260208201905092915050565b60005b838110156121ee5780820151818401526020810190506121d3565b838111156121fd576000848401525b50505050565b6000601f19601f8301169050919050565b600061221f826121b4565b61222981856121bf565b93506122398185602086016121d0565b61224281612203565b840191505092915050565b600060208201905081810360008301526122678184612214565b905092915050565b6000819050919050565b6122828161226f565b811461228d57600080fd5b50565b60008135905061229f81612279565b92915050565b6000602082840312156122bb576122ba612125565b5b60006122c984828501612290565b91505092915050565b600073ffffffffffffffffffffffffffffffffffffffff82169050919050565b60006122fd826122d2565b9050919050565b61230d816122f2565b82525050565b60006020820190506123286000830184612304565b92915050565b612337816122f2565b811461234257600080fd5b50565b6000813590506123548161232e565b92915050565b6000806040838503121561237157612370612125565b5b600061237f85828601612345565b925050602061239085828601612290565b9150509250929050565b6123a38161226f565b82525050565b60006020820190506123be600083018461239a565b92915050565b6123cd816120e5565b81146123d857600080fd5b50565b6000813590506123ea816123c4565b92915050565b60006020828403121561240657612405612125565b5b6000612414848285016123db565b91505092915050565b60008060006060848603121561243657612435612125565b5b600061244486828701612345565b935050602061245586828701612345565b925050604061246686828701612290565b9150509250925092565b600080fd5b600080fd5b600080fd5b60008083601f84011261249557612494612470565b5b8235905067ffffffffffffffff8111156124b2576124b1612475565b5b6020830191508360018202830111156124ce576124cd61247a565b5b9250929050565b600080602083850312156124ec576124eb612125565b5b600083013567ffffffffffffffff81111561250a5761250961212a565b5b6125168582860161247f565b92509250509250929050565b60006020828403121561253857612537612125565b5b600061254684828501612345565b91505092915050565b600061255a826122d2565b9050919050565b61256a8161254f565b82525050565b60006020820190506125856000830184612561565b92915050565b600080604083850312156125a2576125a1612125565b5b60006125b085828601612345565b92505060206125c1858286016123db565b9150509250929050565b600080fd5b7f4e487b7100000000000000000000000000000000000000000000000000000000600052604160045260246000fd5b61260882612203565b810181811067ffffffffffffffff82111715612627576126266125d0565b5b80604052505050565b600061263a61211b565b905061264682826125ff565b919050565b600067ffffffffffffffff821115612666576126656125d0565b5b61266f82612203565b9050602081019050919050565b82818337600083830152505050565b600061269e6126998461264b565b612630565b9050828152602081018484840111156126ba576126b96125cb565b5b6126c584828561267c565b509392505050565b600082601f8301126126e2576126e1612470565b5b81356126f284826020860161268b565b91505092915050565b6000806000806080858703121561271557612714612125565b5b600061272387828801612345565b945050602061273487828801612345565b935050604061274587828801612290565b925050606085013567ffffffffffffffff8111156127665761276561212a565b5b612772878288016126cd565b91505092959194509250565b6000806040838503121561279557612794612125565b5b60006127a385828601612345565b92505060206127b485828601612345565b9150509250929050565b7f4e487b7100000000000000000000000000000000000000000000000000000000600052602260045260246000fd5b6000600282049050600182168061280557607f821691505b60208210811415612819576128186127be565b5b50919050565b7f4552433732313a20617070726f76616c20746f2063757272656e74206f776e6560008201527f7200000000000000000000000000000000000000000000000000000000000000602082015250565b600061287b6021836121bf565b91506128868261281f565b604082019050919050565b600060208201905081810360008301526128aa8161286e565b9050919050565b7f4552433732313a20617070726f76652063616c6c6572206973206e6f7420746f60008201527f6b656e206f776e6572206f7220617070726f76656420666f7220616c6c000000602082015250565b600061290d603d836121bf565b9150612918826128b1565b604082019050919050565b6000602082019050818103600083015261293c81612900565b9050919050565b7f4552433732313a2063616c6c6572206973206e6f7420746f6b656e206f776e6560008201527f72206f7220617070726f76656400000000000000000000000000000000000000602082015250565b600061299f602d836121bf565b91506129aa82612943565b604082019050919050565b600060208201905081810360008301526129ce81612992565b9050919050565b600081905092915050565b50565b60006129f06000836129d5565b91506129fb826129e0565b600082019050919050565b6000612a11826129e3565b9150819050919050565b7f7769746864726177206661696c65640000000000000000000000000000000000600082015250565b6000612a51600f836121bf565b9150612a5c82612a1b565b602082019050919050565b60006020820190508181036000830152612a8081612a44565b9050919050565b7f4552433732313a20696e76616c696420746f6b656e2049440000000000000000600082015250565b6000612abd6018836121bf565b9150612ac882612a87565b602082019050919050565b60006020820190508181036000830152612aec81612ab0565b9050919050565b7f4552433732313a2061646472657373207a65726f206973206e6f74206120766160008201527f6c6964206f776e65720000000000000000000000000000000000000000000000602082015250565b6000612b4f6029836121bf565b9150612b5a82612af3565b604082019050919050565b60006020820190508181036000830152612b7e81612b42565b9050919050565b7f6d696e74696e67206e6f7420656e61626c656400000000000000000000000000600082015250565b6000612bbb6013836121bf565b9150612bc682612b85565b602082019050919050565b60006020820190508181036000830152612bea81612bae565b9050919050565b7f4e487b7100000000000000000000000000000000000000000000000000000000600052601160045260246000fd5b6000612c2b8261226f565b9150612c368361226f565b9250817fffffffffffffffffffffffffffffffffffffffffffffffffffffffffffffffff0483118215151615612c6f57612c6e612bf1565b5b828202905092915050565b7f77726f6e67206d696e742076616c756500000000000000000000000000000000600082015250565b6000612cb06010836121bf565b9150612cbb82612c7a565b602082019050919050565b60006020820190508181036000830152612cdf81612ca3565b9050919050565b6000612cf18261226f565b9150612cfc8361226f565b9250827fffffffffffffffffffffffffffffffffffffffffffffffffffffffffffffffff03821115612d3157612d30612bf1565b5b828201905092915050565b7f736f6c64206f7574000000000000000000000000000000000000000000000000600082015250565b6000612d726008836121bf565b9150612d7d82612d3c565b602082019050919050565b60006020820190508181036000830152612da181612d65565b9050919050565b7f6578636565646564206d61782077616c6c657400000000000000000000000000600082015250565b6000612dde6013836121bf565b9150612de982612da8565b602082019050919050565b60006020820190508181036000830152612e0d81612dd1565b9050919050565b6000612e1f8261226f565b91507fffffffffffffffffffffffffffffffffffffffffffffffffffffffffffffffff821415612e5257612e51612bf1565b5b600182019050919050565b7f546f6b656e20646f6573206e6f74206578697374000000000000000000000000600082015250565b6000612e936014836121bf565b9150612e9e82612e5d565b602082019050919050565b60006020820190508181036000830152612ec281612e86565b9050919050565b600081905092915050565b60008190508160005260206000209050919050565b60008154612ef6816127ed565b612f008186612ec9565b94506001821660008114612f1b5760018114612f2c57612f5f565b60ff19831686528186019350612f5f565b612f3585612ed4565b60005b83811015612f5757815481890152600182019150602081019050612f38565b838801955050505b50505092915050565b6000612f73826121b4565b612f7d8185612ec9565b9350612f8d8185602086016121d0565b80840191505092915050565b7f2e6a736f6e000000000000000000000000000000000000000000000000000000600082015250565b6000612fcf600583612ec9565b9150612fda82612f99565b600582019050919050565b6000612ff18285612ee9565b9150612ffd8284612f68565b915061300882612fc2565b91508190509392505050565b7f4f776e61626c653a206e6577206f776e657220697320746865207a65726f206160008201527f6464726573730000000000000000000000000000000000000000000000000000602082015250565b60006130706026836121bf565b915061307b82613014565b604082019050919050565b6000602082019050818103600083015261309f81613063565b9050919050565b7f4f776e61626c653a2063616c6c6572206973206e6f7420746865206f776e6572600082015250565b60006130dc6020836121bf565b91506130e7826130a6565b602082019050919050565b6000602082019050818103600083015261310b816130cf565b9050919050565b7f4552433732313a207472616e736665722066726f6d20696e636f72726563742060008201527f6f776e6572000000000000000000000000000000000000000000000000000000602082015250565b600061316e6025836121bf565b915061317982613112565b604082019050919050565b6000602082019050818103600083015261319d81613161565b9050919050565b7f4552433732313a207472616e7366657220746f20746865207a65726f2061646460008201527f7265737300000000000000000000000000000000000000000000000000000000602082015250565b60006132006024836121bf565b915061320b826131a4565b604082019050919050565b6000602082019050818103600083015261322f816131f3565b9050919050565b7f4552433732313a20617070726f766520746f2063616c6c657200000000000000600082015250565b600061326c6019836121bf565b915061327782613236565b602082019050919050565b6000602082019050818103600083015261329b8161325f565b9050919050565b7f4552433732313a207472616e7366657220746f206e6f6e20455243373231526560008201527f63656976657220696d706c656d656e7465720000000000000000000000000000602082015250565b60006132fe6032836121bf565b9150613309826132a2565b604082019050919050565b6000602082019050818103600083015261332d816132f1565b9050919050565b7f4e487b7100000000000000000000000000000000000000000000000000000000600052601260045260246000fd5b600081519050919050565b600082825260208201905092915050565b600061338a82613363565b613394818561336e565b93506133a48185602086016121d0565b6133ad81612203565b840191505092915050565b60006080820190506133cd6000830187612304565b6133da6020830186612304565b6133e7604083018561239a565b81810360608301526133f9818461337f565b905095945050505050565b6000815190506134138161215b565b92915050565b60006020828403121561342f5761342e612125565b5b600061343d84828501613404565b91505092915050565b7f4552433732313a206d696e7420746f20746865207a65726f2061646472657373600082015250565b600061347c6020836121bf565b915061348782613446565b602082019050919050565b600060208201905081810360008301526134ab8161346f565b9050919050565b7f4552433732313a20746f6b656e20616c7265616479206d696e74656400000000600082015250565b60006134e8601c836121bf565b91506134f3826134b2565b602082019050919050565b60006020820190508181036000830152613517816134db565b905091905056fea264697066735822122010f3c88e7d9613ddea0a82e662efbd9f29de707f45b6eb2544d5f4716db2630b64736f6c63430008090033",
  "linkReferences": {},
  "deployedLinkReferences": {}
}